{
  "_format": "hh-sol-artifact-1",
  "contractName": "AnyCall",
  "sourceName": "contracts/AnyCall.sol",
  "abi": [
    {
      "inputs": [],
      "stateMutability": "nonpayable",
      "type": "constructor"
    },
    {
      "inputs": [
        {
          "internalType": "address",
          "name": "owner",
          "type": "address"
        }
      ],
      "name": "OwnableInvalidOwner",
      "type": "error"
    },
    {
      "inputs": [
        {
          "internalType": "address",
          "name": "account",
          "type": "address"
        }
      ],
      "name": "OwnableUnauthorizedAccount",
      "type": "error"
    },
    {
      "anonymous": false,
      "inputs": [
        {
          "indexed": false,
          "internalType": "address",
          "name": "targets",
          "type": "address"
        },
        {
          "indexed": false,
          "internalType": "uint16",
          "name": "operationIndex",
          "type": "uint16"
        }
      ],
      "name": "OperationCompleted",
      "type": "event"
    },
    {
      "anonymous": false,
      "inputs": [
        {
          "indexed": true,
          "internalType": "address",
          "name": "previousOwner",
          "type": "address"
        },
        {
          "indexed": true,
          "internalType": "address",
          "name": "newOwner",
          "type": "address"
        }
      ],
      "name": "OwnershipTransferred",
      "type": "event"
    },
    {
      "inputs": [
        {
          "internalType": "address[]",
          "name": "targets",
          "type": "address[]"
        },
        {
          "internalType": "bytes[]",
          "name": "data",
          "type": "bytes[]"
        }
      ],
      "name": "execute",
      "outputs": [
        {
          "internalType": "bytes[]",
          "name": "",
          "type": "bytes[]"
        }
      ],
      "stateMutability": "payable",
      "type": "function"
    },
    {
      "inputs": [],
      "name": "owner",
      "outputs": [
        {
          "internalType": "address",
          "name": "",
          "type": "address"
        }
      ],
      "stateMutability": "view",
      "type": "function"
    },
    {
      "inputs": [],
      "name": "renounceOwnership",
      "outputs": [],
      "stateMutability": "nonpayable",
      "type": "function"
    },
    {
      "inputs": [
        {
          "internalType": "address",
          "name": "newOwner",
          "type": "address"
        }
      ],
      "name": "transferOwnership",
      "outputs": [],
      "stateMutability": "nonpayable",
      "type": "function"
    }
  ],
  "bytecode": "0x608060405234801561001057600080fd5b5033600073ffffffffffffffffffffffffffffffffffffffff168173ffffffffffffffffffffffffffffffffffffffff16036100845760006040517f1e4fbdf700000000000000000000000000000000000000000000000000000000815260040161007b919061019e565b60405180910390fd5b6100938161009960201b60201c565b506101b9565b60008060009054906101000a900473ffffffffffffffffffffffffffffffffffffffff169050816000806101000a81548173ffffffffffffffffffffffffffffffffffffffff021916908373ffffffffffffffffffffffffffffffffffffffff1602179055508173ffffffffffffffffffffffffffffffffffffffff168173ffffffffffffffffffffffffffffffffffffffff167f8be0079c531659141344cd1fd0a4f28419497f9722a3daafe3b4186f6b6457e060405160405180910390a35050565b600073ffffffffffffffffffffffffffffffffffffffff82169050919050565b60006101888261015d565b9050919050565b6101988161017d565b82525050565b60006020820190506101b3600083018461018f565b92915050565b610d1c806101c86000396000f3fe60806040526004361061003f5760003560e01c8063715018a6146100445780638da5cb5b1461005b578063c8d18a4514610086578063f2fde38b146100b6575b600080fd5b34801561005057600080fd5b506100596100df565b005b34801561006757600080fd5b506100706100f3565b60405161007d9190610564565b60405180910390f35b6100a0600480360381019061009b91906108ae565b61011c565b6040516100ad9190610a67565b60405180910390f35b3480156100c257600080fd5b506100dd60048036038101906100d89190610a89565b61034a565b005b6100e76103d0565b6100f16000610457565b565b60008060009054906101000a900473ffffffffffffffffffffffffffffffffffffffff16905090565b60608151835114610162576040517f08c379a000000000000000000000000000000000000000000000000000000000815260040161015990610b39565b60405180910390fd5b6000835167ffffffffffffffff81111561017f5761017e6105a9565b5b6040519080825280602002602001820160405280156101b257816020015b606081526020019060019003908161019d5790505b50905060005b84518161ffff16101561033f57600080868361ffff16815181106101df576101de610b59565b5b602002602001015173ffffffffffffffffffffffffffffffffffffffff16868461ffff168151811061021457610213610b59565b5b60200260200101516040516102299190610bc4565b6000604051808303816000865af19150503d8060008114610266576040519150601f19603f3d011682016040523d82523d6000602084013e61026b565b606091505b5091509150816102b0576040517f08c379a00000000000000000000000000000000000000000000000000000000081526004016102a790610c27565b60405180910390fd5b80848461ffff16815181106102c8576102c7610b59565b5b60200260200101819052507ff2dfa57a1daec39d25cc502cceb94638e609831f5af8bf5f51f2a4958d8e4cf3878461ffff168151811061030b5761030a610b59565b5b602002602001015184604051610322929190610c64565b60405180910390a15050808061033790610cbc565b9150506101b8565b508091505092915050565b6103526103d0565b600073ffffffffffffffffffffffffffffffffffffffff168173ffffffffffffffffffffffffffffffffffffffff16036103c45760006040517f1e4fbdf70000000000000000000000000000000000000000000000000000000081526004016103bb9190610564565b60405180910390fd5b6103cd81610457565b50565b6103d861051b565b73ffffffffffffffffffffffffffffffffffffffff166103f66100f3565b73ffffffffffffffffffffffffffffffffffffffff16146104555761041961051b565b6040517f118cdaa700000000000000000000000000000000000000000000000000000000815260040161044c9190610564565b60405180910390fd5b565b60008060009054906101000a900473ffffffffffffffffffffffffffffffffffffffff169050816000806101000a81548173ffffffffffffffffffffffffffffffffffffffff021916908373ffffffffffffffffffffffffffffffffffffffff1602179055508173ffffffffffffffffffffffffffffffffffffffff168173ffffffffffffffffffffffffffffffffffffffff167f8be0079c531659141344cd1fd0a4f28419497f9722a3daafe3b4186f6b6457e060405160405180910390a35050565b600033905090565b600073ffffffffffffffffffffffffffffffffffffffff82169050919050565b600061054e82610523565b9050919050565b61055e81610543565b82525050565b60006020820190506105796000830184610555565b92915050565b6000604051905090565b600080fd5b600080fd5b600080fd5b6000601f19601f8301169050919050565b7f4e487b7100000000000000000000000000000000000000000000000000000000600052604160045260246000fd5b6105e182610598565b810181811067ffffffffffffffff82111715610600576105ff6105a9565b5b80604052505050565b600061061361057f565b905061061f82826105d8565b919050565b600067ffffffffffffffff82111561063f5761063e6105a9565b5b602082029050602081019050919050565b600080fd5b61065e81610543565b811461066957600080fd5b50565b60008135905061067b81610655565b92915050565b600061069461068f84610624565b610609565b905080838252602082019050602084028301858111156106b7576106b6610650565b5b835b818110156106e057806106cc888261066c565b8452602084019350506020810190506106b9565b5050509392505050565b600082601f8301126106ff576106fe610593565b5b813561070f848260208601610681565b91505092915050565b600067ffffffffffffffff821115610733576107326105a9565b5b602082029050602081019050919050565b600080fd5b600067ffffffffffffffff821115610764576107636105a9565b5b61076d82610598565b9050602081019050919050565b82818337600083830152505050565b600061079c61079784610749565b610609565b9050828152602081018484840111156107b8576107b7610744565b5b6107c384828561077a565b509392505050565b600082601f8301126107e0576107df610593565b5b81356107f0848260208601610789565b91505092915050565b600061080c61080784610718565b610609565b9050808382526020820190506020840283018581111561082f5761082e610650565b5b835b8181101561087657803567ffffffffffffffff81111561085457610853610593565b5b80860161086189826107cb565b85526020850194505050602081019050610831565b5050509392505050565b600082601f83011261089557610894610593565b5b81356108a58482602086016107f9565b91505092915050565b600080604083850312156108c5576108c4610589565b5b600083013567ffffffffffffffff8111156108e3576108e261058e565b5b6108ef858286016106ea565b925050602083013567ffffffffffffffff8111156109105761090f61058e565b5b61091c85828601610880565b9150509250929050565b600081519050919050565b600082825260208201905092915050565b6000819050602082019050919050565b600081519050919050565b600082825260208201905092915050565b60005b8381101561098c578082015181840152602081019050610971565b60008484015250505050565b60006109a382610952565b6109ad818561095d565b93506109bd81856020860161096e565b6109c681610598565b840191505092915050565b60006109dd8383610998565b905092915050565b6000602082019050919050565b60006109fd82610926565b610a078185610931565b935083602082028501610a1985610942565b8060005b85811015610a555784840389528151610a3685826109d1565b9450610a41836109e5565b925060208a01995050600181019050610a1d565b50829750879550505050505092915050565b60006020820190508181036000830152610a8181846109f2565b905092915050565b600060208284031215610a9f57610a9e610589565b5b6000610aad8482850161066c565b91505092915050565b600082825260208201905092915050565b7f496e76616c6964206e756d626572206f6620636f6e747261637473206f72206460008201527f6174612070726f76696465640000000000000000000000000000000000000000602082015250565b6000610b23602c83610ab6565b9150610b2e82610ac7565b604082019050919050565b60006020820190508181036000830152610b5281610b16565b9050919050565b7f4e487b7100000000000000000000000000000000000000000000000000000000600052603260045260246000fd5b600081905092915050565b6000610b9e82610952565b610ba88185610b88565b9350610bb881856020860161096e565b80840191505092915050565b6000610bd08284610b93565b915081905092915050565b7f4f7065726174696f6e20646964206e6f74207375636365656400000000000000600082015250565b6000610c11601983610ab6565b9150610c1c82610bdb565b602082019050919050565b60006020820190508181036000830152610c4081610c04565b9050919050565b600061ffff82169050919050565b610c5e81610c47565b82525050565b6000604082019050610c796000830185610555565b610c866020830184610c55565b9392505050565b7f4e487b7100000000000000000000000000000000000000000000000000000000600052601160045260246000fd5b6000610cc782610c47565b915061ffff8203610cdb57610cda610c8d565b5b60018201905091905056fea2646970667358221220dc7d7aba026228dac9b365643006b0e73fe69915c91128439f8be50f634aa15b64736f6c634300081b0033",
  "linkReferences": {},
  "deployedLinkReferences": {}
}